{
  "_format": "hh-sol-artifact-1",
  "contractName": "Lock",
  "sourceName": "contracts/Lock.sol",
  "abi": [
    {
      "inputs": [
        {
          "internalType": "address",
          "name": "_creator",
          "type": "address"
        },
        {
          "internalType": "address payable",
          "name": "_owner",
          "type": "address"
        },
        {
          "internalType": "uint256",
          "name": "_lockedFor",
          "type": "uint256"
        }
      ],
      "stateMutability": "payable",
      "type": "constructor"
    },
    {
      "anonymous": false,
      "inputs": [
        {
          "indexed": false,
          "internalType": "address",
          "name": "from",
          "type": "address"
        },
        {
          "indexed": false,
          "internalType": "uint256",
          "name": "amount",
          "type": "uint256"
        }
      ],
      "name": "Received",
      "type": "event"
    },
    {
      "anonymous": false,
      "inputs": [
        {
          "indexed": false,
          "internalType": "address",
          "name": "",
          "type": "address"
        },
        {
          "indexed": false,
          "internalType": "uint256",
          "name": "",
          "type": "uint256"
        }
      ],
      "name": "Withdrew",
      "type": "event"
    },
    {
      "inputs": [],
      "name": "createdAt",
      "outputs": [
        {
          "internalType": "uint256",
          "name": "",
          "type": "uint256"
        }
      ],
      "stateMutability": "view",
      "type": "function"
    },
    {
      "inputs": [],
      "name": "creator",
      "outputs": [
        {
          "internalType": "address",
          "name": "",
          "type": "address"
        }
      ],
      "stateMutability": "view",
      "type": "function"
    },
    {
      "inputs": [],
      "name": "getAddress",
      "outputs": [
        {
          "internalType": "address",
          "name": "",
          "type": "address"
        }
      ],
      "stateMutability": "view",
      "type": "function"
    },
    {
      "inputs": [],
      "name": "info",
      "outputs": [
        {
          "internalType": "address",
          "name": "",
          "type": "address"
        },
        {
          "internalType": "address",
          "name": "",
          "type": "address"
        },
        {
          "internalType": "uint256",
          "name": "",
          "type": "uint256"
        },
        {
          "internalType": "uint256",
          "name": "",
          "type": "uint256"
        },
        {
          "internalType": "uint256",
          "name": "",
          "type": "uint256"
        }
      ],
      "stateMutability": "view",
      "type": "function"
    },
    {
      "inputs": [],
      "name": "owner",
      "outputs": [
        {
          "internalType": "address payable",
          "name": "",
          "type": "address"
        }
      ],
      "stateMutability": "view",
      "type": "function"
    },
    {
      "inputs": [],
      "name": "unlockDate",
      "outputs": [
        {
          "internalType": "uint256",
          "name": "",
          "type": "uint256"
        }
      ],
      "stateMutability": "view",
      "type": "function"
    },
    {
      "inputs": [],
      "name": "withdraw",
      "outputs": [],
      "stateMutability": "nonpayable",
      "type": "function"
    },
    {
      "stateMutability": "payable",
      "type": "receive"
    }
  ],
  "bytecode": "0x608060405260405161083638038061083683398181016040528101906100259190610106565b826000806101000a81548173ffffffffffffffffffffffffffffffffffffffff021916908373ffffffffffffffffffffffffffffffffffffffff16021790555081600160006101000a81548173ffffffffffffffffffffffffffffffffffffffff021916908373ffffffffffffffffffffffffffffffffffffffff16021790555080426100b29190610155565b6002819055504260038190555050505061026d565b6000815190506100d681610228565b92915050565b6000815190506100eb8161023f565b92915050565b60008151905061010081610256565b92915050565b60008060006060848603121561011b57600080fd5b6000610129868287016100c7565b935050602061013a868287016100dc565b925050604061014b868287016100f1565b9150509250925092565b6000610160826101ef565b915061016b836101ef565b9250827fffffffffffffffffffffffffffffffffffffffffffffffffffffffffffffffff038211156101a05761019f6101f9565b5b828201905092915050565b60006101b6826101cf565b9050919050565b60006101c8826101cf565b9050919050565b600073ffffffffffffffffffffffffffffffffffffffff82169050919050565b6000819050919050565b7f4e487b7100000000000000000000000000000000000000000000000000000000600052601160045260246000fd5b610231816101ab565b811461023c57600080fd5b50565b610248816101bd565b811461025357600080fd5b50565b61025f816101ef565b811461026a57600080fd5b50565b6105ba8061027c6000396000f3fe6080604052600436106100745760003560e01c80633ccfd60b1161004e5780633ccfd60b1461013e57806369ac5721146101555780638da5cb5b14610180578063cf09e0d0146101ab576100b4565b806302d05d3f146100b9578063370158ea146100e457806338cc483114610113576100b4565b366100b4577f88a5966d370b9919b20f3e2c13ff65706f196a4e32cc2c12bf57088f8852587433346040516100aa9291906104bc565b60405180910390a1005b600080fd5b3480156100c557600080fd5b506100ce6101d6565b6040516100db919061040a565b60405180910390f35b3480156100f057600080fd5b506100f96101fa565b60405161010a959493929190610469565b60405180910390f35b34801561011f57600080fd5b5061012861025f565b604051610135919061040a565b60405180910390f35b34801561014a57600080fd5b50610153610267565b005b34801561016157600080fd5b5061016a61039c565b60405161017791906104e5565b60405180910390f35b34801561018c57600080fd5b506101956103a2565b6040516101a29190610425565b60405180910390f35b3480156101b757600080fd5b506101c06103c8565b6040516101cd91906104e5565b60405180910390f35b60008054906101000a900473ffffffffffffffffffffffffffffffffffffffff1681565b60008060008060008060009054906101000a900473ffffffffffffffffffffffffffffffffffffffff16600160009054906101000a900473ffffffffffffffffffffffffffffffffffffffff1660025460035447945094509450945094509091929394565b600030905090565b600160009054906101000a900473ffffffffffffffffffffffffffffffffffffffff1673ffffffffffffffffffffffffffffffffffffffff163373ffffffffffffffffffffffffffffffffffffffff16146102c157600080fd5b6002544210156102d057600080fd5b6000479050600160009054906101000a900473ffffffffffffffffffffffffffffffffffffffff1673ffffffffffffffffffffffffffffffffffffffff166108fc829081150290604051600060405180830381858888f1935050505015801561033d573d6000803e3d6000fd5b507fb244b9a17ad633c6e83b7983ee04320484956a68ddbe96a0b70dfca1cf19d723600160009054906101000a900473ffffffffffffffffffffffffffffffffffffffff1682604051610391929190610440565b60405180910390a150565b60025481565b600160009054906101000a900473ffffffffffffffffffffffffffffffffffffffff1681565b60035481565b6103d78161054e565b82525050565b6103e681610512565b82525050565b6103f581610500565b82525050565b61040481610544565b82525050565b600060208201905061041f60008301846103ec565b92915050565b600060208201905061043a60008301846103dd565b92915050565b600060408201905061045560008301856103ce565b61046260208301846103fb565b9392505050565b600060a08201905061047e60008301886103ec565b61048b60208301876103ec565b61049860408301866103fb565b6104a560608301856103fb565b6104b260808301846103fb565b9695505050505050565b60006040820190506104d160008301856103ec565b6104de60208301846103fb565b9392505050565b60006020820190506104fa60008301846103fb565b92915050565b600061050b82610524565b9050919050565b600061051d82610524565b9050919050565b600073ffffffffffffffffffffffffffffffffffffffff82169050919050565b6000819050919050565b600061055982610560565b9050919050565b600061056b82610572565b9050919050565b600061057d82610524565b905091905056fea2646970667358221220baab949c8d0c0a11ec821290cce13649d15cd18651d35ae78150343964ba7ce464736f6c63430008000033",
  "linkReferences": {},
  "deployedLinkReferences": {}
}